:100000000C9434000C943E000C943E000C943E0082
:100010000C943E000C943E000C943E000C943E0068
:100020000C943E000C943E000C943E000C943E0058
:100030000C943E000C943E000C943E000C943E0048
:100040000C943E000C943E000C943E000C943E0038
:100050000C943E000C943E000C943E000C943E0028
:100060000C943E000C943E0011241FBECFEFD8E04C
:10007000DEBFCDBF0E9440000C943E010C940000F6
:10008000F89415BE109269001DBA10926E0010927D
:100090006F001092700010926B0010926C00109222
:1000A0006D0010926800109264008EE38AB98FEFA1
:1000B0008BB987B988B984B98FE385B980E880BFE7
:1000C0001092C1001092C00086E08093C20010928E
:1000D000C50088E08093C4008093C10015BC16BCA5
:1000E00082E084BD8DE287BD81E085BD70E060E087
:1000F00030E0E0E040E090E020E0F0E4A99BFECFBB
:10010000A99A89B1829586958695837031111BC015
:10011000682F6170782F727031E0283078F385B1E4
:100120008F2785B9411188C0E92F90E020E031E0A8
:1001300041E0A99BE3CFA99A89B1829586958695DE
:100140008370332329F3582F51708270561709F4A6
:1001500050C0611160C0871709F474C0832F52E04A
:10016000711101C0532F990F8170890F2F5F2830B3
:1001700028F5982F990F5170950F2F5F2830A9F40B
:1001800085B18F2785B9442361F09E278091C000F7
:1001900085FFFCCF9093C60030E040E090E020E087
:1001A000ADCFE92F90E020E0432F30E0A7CF892F9B
:1001B000880F2F5F283008F442C050E095B19F2788
:1001C00095B9442389F1982F30E09E278091C00093
:1001D00085FFFCCF9093C6005523F9F2432F8E2F55
:1001E00030E0952F9170E82F842F432F382F21E096
:1001F00085CF8717B9F1772379F1892F52E028301D
:1002000008F4B7CF52E085B18F2785B9892F4423F1
:1002100041F330E0DACF871751F282E052E07111FA
:10022000A2CF562F82E09FCF5111DBCFE82F432F73
:1002300030E090E020E062CF50E0342FC6CF982F1E
:1002400030E05CCF990F81E0890F2F5F283008F0F4
:10025000B4CF30E0982F52CF532F892F283008F495
:1002600088CFD1CF283008F4A0CF85B18F2785B9AA
:10027000442309F496CF50E030E0A7CFF894FFCFA5
:00000001FF
