:100000000C9434000C943E000C943E000C943E0082
:100010000C943E000C943E000C943E000C943E0068
:100020000C943E000C943E000C943E000C943E0058
:100030000C943E000C943E000C943E000C943E0048
:100040000C943E000C943E000C943E000C943E0038
:100050000C943E000C943E000C943E000C943E0028
:100060000C943E000C943E0011241FBECFEFD4E050
:10007000DEBFCDBF0E9440000C94F8000C9400003D
:10008000F89415BE109269001DBA10926E0010927D
:100090006F001092700010926B0010926C00109222
:1000A0006D0010926800109264008EE38AB98FEFA1
:1000B0008BB987B988B984B98FE385B980E880BFE7
:1000C0001092C1001092C00086E08093C20010928E
:1000D000C50088E08093C4008093C10015BC16BCA5
:1000E00082E084BD8DE287BD81E085BD60E070E087
:1000F00050E0A0E040E080E020E0F0E4A99BFECFEB
:10010000A99A99B1929596959695937051113AC086
:10011000792F7170692F627030E051E02830C0F0A3
:1001200095B19F2795B94F5F423008F457C0982F7B
:100130009A278091C00085FFFCCF9093C60040E0D5
:1001400080E020E03323D1F2832F817021E0D6CFED
:100150003323A1F2880F3170830F2F5F283070F2A4
:1001600095B19F2795B94F5F4230A0F1982F9A27FC
:100170008091C00085FFFCCF9093C60040E080E0F6
:1001800020E0BCCF392F31703717E1F0711111C069
:1001900051E0E1E09270961789F0662389F0EE2332
:1001A000B1F032E05E2F5170880F850F2F5F50E065
:1001B000B5CF50E0E2E092709613EFCF30E0F4CF8D
:1001C00031E0F0CF9270961781F0662359F032E05B
:1001D00050E0A4CFA82F80E020E090CFA82F80E0AF
:1001E00020E0B0CF31E050E099CF30E050E096CF42
:0401F000F894FFCFB1
:00000001FF
