:100000000C9434000C943E000C943E000C943E0082
:100010000C943E000C943E000C943E000C943E0068
:100020000C943E000C943E000C943E000C943E0058
:100030000C943E000C943E000C943E000C943E0048
:100040000C943E000C943E000C943E000C943E0038
:100050000C943E000C943E000C943E000C943E0028
:100060000C943E000C943E0011241FBECFEFD8E04C
:10007000DEBFCDBF0E9440000C948A000C940000AB
:10008000F89415BE109269001DBA10926E0010927D
:100090006F001092700010926B0010926C00109222
:1000A0006D0010926800109264008EE38AB98FEFA1
:1000B0008BB987B988B984B985B980E880BF1092B7
:1000C000C10092E09093C00086E08093C20010923D
:1000D000C50081E08093C40028E02093C10015BCD6
:1000E00016BC94BD97E297BD85BD90E020E0A99B2A
:1000F000FECFA99A89B196959695807C982B2F5F13
:100100002430A8F38091C00085FFFCCF9093C600F7
:0801100020E0EDCFF894FFCFD1
:00000001FF
